:020000040001F9
:10F00000A04D002015F201001DF201001FF20100C9
:10F0100021F2010023F2010025F2010000000000AE
:10F0200000000000000000000000000027F20100C6
:10F0300029F20100000000002BF201002DF2010076
:10F04000FDF401002FF201009DF801002FF20100F4
:10F050002FF201002FF2010019F301002FF201003D
:10F060002FF201002FF201002FF201002FF2010018
:10F070002FF201002FF201002FF201002FF2010008
:10F080002FF2010055F501002FF201002FF20100CF
:10F0900079F501002FF201007DF501002FF201004A
:10F0A0002FF201002FF201002FF201002FF20100D8
:10F0B0002FF201002FF2010000000000000000000C
:10F0C0002FF201002FF201002FF201002FF20100B8
:10F0D0002FF201002FF201002FF2010000000000CA
:10F0E0000000000000000000000000000000000020
:10F0F0000000000000000000000000000000000010
:10F1000000000000000000000000000000000000FF
:10F1100000000000000000000000000000000000EF
:10F1200000000000000000000000000000000000DF
:10F1300000000000000000000000000000000000CF
:10F1400000000000000000000000000000000000BF
:10F1500000000000000000000000000000000000AF
:10F16000000000000000000000000000000000009F
:10F17000000000000000000000000000000000008F
:10F18000000000000000000000000000000000007F
:10F19000000000000000000000000000000000006F
:10F1A000000000000000000000000000000000005F
:10F1B000000000000000000000000000000000004F
:10F1C000000000000000000000000000000000003F
:10F1D000000000000000000000000000000000002F
:10F1E000000000000000000000000000000000001F
:10F1F000000000000000000000000000000000000F
:10F20000DFF80CD000F04AF800480047452902001A
:10F21000A04D00200648804706480047FEE7FEE76D
:10F22000FEE7FEE7FEE7FEE7FEE7FEE7FEE7FEE7B6
:10F23000A1F5010001F2010040EA01039B0703D0A0
:10F2400009E008C9121F08C0042AFAD203E011F825
:10F25000013B00F8013B521EF9D27047D2B201E0E7
:10F2600000F8012B491EFBD270470022F6E710B5CB
:10F2700013460A4604461946FFF7F0FF204610BD24
:10F2800030B504460020034600E05B1C934203D2E5
:10F29000E05CCD5C401BF8D030BD0000064C074D53
:10F2A00006E0E06840F0010394E807009847103456
:10F2B000AC42F6D3FFF7A8FF3863020058630200A0
:10F2C00070B58C1810F8015B15F0070301D110F828
:10F2D000013B2A1106D110F8012B03E010F8016B55
:10F2E00001F8016B5B1EF9D12B0705D40023521ED8
:10F2F0000DD401F8013BFAE710F8013BCB1A921C40
:10F3000003E013F8015B01F8015B521EF9D5A1423D
:10F31000D8D3002070BD00002DE9F04700268CB046
:10F32000DFF86091B0464FF48075012437460696A9
:10F33000284603F09FFF38B1D9F80403204203D0D8
:10F34000284603F08DFF26432D1D64007F1CADB2BF
:10F35000082FEDD34FF4BE74204603F08BFF48B165
:10F36000204603F07DFF46F0004606AA012100205A
:10F3700003F062FF444D16F0FF0F15D00127002463
:10F3800037420DD009EB8401D1F81005D1F81015E2
:10F39000C0F3042055F82420C1F3014102B1904785
:10F3A0007F00641C082CEBD3002E67DA4FF0FF308F
:10F3B000CDE9088000263446281910F8507F90F9CE
:10F3C000000027F0C008401C44D009A9404603F0C3
:10F3D00035FC58B34FEA9719404601F057FC55F8F1
:10F3E00020701FB1B9F1030F03D00FE0B9F1030F83
:10F3F00030D108A84FEAD80208F00703815C4FF02B
:10F40000010C0CFA03FC41EA0C0181544FF0A041BD
:10F4100001EB8800D0F8000706A9C0F3014A404676
:10F4200003F00CFC18B1BAF1020F03D012E0BAF1EC
:10F43000030F0FD1B9F1030F08D1BAF1020F1BD09E
:10F440000221404603F0DBFE761CF6B217B14946B6
:10F450004046B847641C042CAED3002E0ED06A463A
:10F460000121002003F0E8FE06990098884205D0AB
:10F470000690089809909DE70321E2E70CB0BDE8EB
:10F48000F087000000600040742B002000F01F0295
:10F49000012191404009800000F1E020C0F8801275
:10F4A000704700F01F02012191404009800000F1E7
:10F4B000E020C0F88011704700F01F020121914048
:10F4C0004009800000F1E020C0F80011704700F012
:10F4D0001F02012191404009800000F1E020C0F8A6
:10F4E0000011704700F01F02012191404009800087
:10F4F00000F1E020C0F80012704700002DE9F04153
:10F500004FF48077384603F0A1FB0124104EA50785
:10F5100048B1384603F0A1FB0120C5F80803747018
:10F52000002001F0F3FB4FF48277384603F08EFBA6
:10F5300000280BD0384603F090FB0220C5F80803E2
:10F54000B470BDE8F041012001F0E0BBBDE8F081FE
:10F55000602B002007480021C0F84011C0F844117A
:10F56000C0F84811C0F84C11C0F80011C0F80411DF
:10F5700006F096BA0010014006F00ABA074810B526
:10F58000406830B18047002807D0BDE8104000F047
:10F5900059BBBDE8104002F0ADBE10BD4C220020AA
:10F5A000F0B5AE480023021D01780125101D4FF073
:10F5B000805406290BD11678360708D10678C6F391
:10F5C0000316032E06D0042E04D0052E02D00629E1
:10F5D00007D00EE0B4F82463A14FC6F304263E60C2
:10F5E00002E01678360704D10678C6F30316032E18
:10F5F00002D0062904D00FE09B4F9A4E7E670EE0A2
:10F600001678360708D10678C6F30316032E06D0FF
:10F61000042E04D0052E02D0062907D00EE0D4F81F
:10F620004462924FC6F342363E6002E016783607D7
:10F6300004D10678C6F30316032E02D0062906D09D
:10F6400011E08B4E376827F0807737600EE0167830
:10F65000360708D10678C6F30316032E06D0042E0B
:10F6600004D0052E02D006290AD011E04FF08046C2
:10F67000C6F80C31C6F810317C4E361F336002E0FC
:10F680001678360704D10678C6F30316032E02D087
:10F69000062905D00CE0754F032664373E600AE06A
:10F6A0001678360704D10678C6F30316032E02D067
:10F6B00006290DD014E06F4F05263E606D4E78365A
:10F6C00035606C4E083633603F263F1D3E6002E0D9
:10F6D0001678360704D10678C6F30316052E02D035
:10F6E000062957D062E0644E3668644F3E60624E31
:10F6F000361D36683F1D3E605F4E083636683F1D3A
:10F700003E605D4E0C3636683F1D3E605A4E1036E8
:10F7100036683F1D3E60584E143636683F1D3E60C9
:10F72000554E18363668554F20373E60524E1C36BF
:10F7300036683F1D3E60504E203636683F1D3E60A5
:10F740004D4E243636683F1D3E604B4E2836366897
:10F750003F1D3E60484E2C3636683F1D3E60464E8B
:10F7600030363668454F40373E60434E3436366853
:10F770003F1D3E60404E383636683F1D3E603E4E6F
:10F780003C3636683F1D3E603B4E403636683F1D76
:10F790003E6002E01678360708D10678C6F30316F5
:10F7A000032E06D0042E04D0052E02D0062907D041
:10F7B00019E0D4F85812324A01F04F01116002E00A
:10F7C000117809070FD10078C0F30310032803D084
:10F7D000042801D0052806D12A480168C90702D0AB
:10F7E0006FF00101016022487438016841F4700132
:10F7F0000160BFF34F8FBFF36F8F4FF01021D1F82F
:10F800000002002803DBD1F80402002822DA1E4A95
:10F8100015601E480468002CFCD01524C1F8004275
:10F820000568002DFCD0C1F8044201680029FCD015
:10F83000136001680029FCD0BFF34F8F0C48F038EB
:10F840000168134A01F4E06111430160BFF34F8F77
:10F8500000BFFDE710490F480860F0BDE00F00F061
:10F86000403501400DF0ADBA00C007403C050040F6
:10F87000FCED00E0105600400404001020C50040DC
:10F88000E40E00400004004004E5014000E40140B3
:10F890000400FA050090D003602200200448017F94
:10F8A00004480029024901D006F0E9B906F058B928
:10F8B000CC2B00200020004002E008C8121F08C125
:10F8C000002AFAD170477047002001E001C1121FE1
:10F8D000002AFBD1704700000121202803DA814073
:10F8E0000548014003E0402802DA2038814009B190
:10F8F0000120704700207047FC06FFBC10B560B1C6
:10F9000059B102780B785208B2EB530F05D1062299
:10F91000401C491CFFF7B4FC08B1002010BD0120B9
:10F9200010BD2DE9FC47002517880646158090F884
:10F930002D001446894630B13A462146484600F02B
:10F94000BDFD050009D1B0784FF00C0A18B320882E
:10F95000C846001DB84202D95046BDE8FC8768463B
:10F9600079DF0028F9D12088032108F800102088C9
:10F970001921401C80B2208008F800102088401C0B
:10F9800080B2208000EB0801BDF8000006F0EFF91E
:10F99000218808442080F0780222C8B1218896F995
:10F9A000033001F1030C4846BC45D5D842542188A8
:10F9B0004FF0010C491C89B2218000F801C0218858
:10F9C000491C89B2218009F801302088401C208020
:10F9D0007068B8B1218890F9003001F1030C4846F5
:10F9E000BC45B9D8425421880A22491C89B22180D9
:10F9F00042542188491C89B2218009F801302088AD
:10FA0000401C2080308950B1CDE900474B4606228A
:10FA1000022106F1080006F003FA05009DD1308AA4
:10FA200050B1CDE900474B460722032106F11000F3
:10FA300006F0F6F9050090D1308B50B1CDE90047C2
:10FA40004B461522142106F1180006F0E9F90500CD
:10FA500083D1306A30B13B462246494601F0C0F9B5
:10FA60000500DBD1706A30B13B462246494603F0BF
:10FA700021F80500D2D196F82C0038B13B46224639
:10FA80004946304605F032FC0500C7D1307838B120
:10FA90003B4622464946304603F03EF80500BDD1BC
:10FAA00028465AE7134A0021535C0BB1012203E0B8
:10FAB000491C0629F8D300220F49012806D0022844
:10FAC00009D003280CD0042812D10DE0487810B1D9
:10FAD0000AB101207047887810B10AB1022070473E
:10FAE000C87808B103207047087908B1042070472E
:10FAF00000207047692100205823002010B5012202
:10FB00000221002000F050FF08B1072810D1072281
:10FB10000221012000F048FF08B1072808D1002188
:10FB20000A22084600F040FF08B1072800D1002053
:10FB300010BD70B58CB015460E4600236C46C3F15F
:10FB40000F01415CE1545B1C102BF8D30D2104F133
:10FB50001000FFF78AFB0020C0F10F02315C224445
:10FB6000401C11740328F7D3684643DF0020C0F11E
:10FB70000F01214491F820102954401C0328F6D38A
:10FB80000CB070BD022000F0D1BD000070B50024A3
:10FB9000064D06E06868012110F8340003F00AFA07
:10FBA000641C28788442F5D3002070BDEC2100202D
:10FBB000F8B515460C460646052A01D20720F8BDC1
:10FBC00003F0DEFA18B903F0ADFA0028F7D11049B6
:10FBD00000204E600C70C1E902500E4D08610DE02E
:10FBE00006EBC4006968009181788DF801100078F7
:10FBF000094A694603F030FA0028E0D1641EE4B2F5
:10FC0000EED2BDE8F840054A0021024800F046B8AF
:10FC1000EC2100201C630200F11C0200990F02007D
:10FC2000BFF34F8F05480168054A01F4E0611143B5
:10FC30000160BFF34F8F00BFFDE700000CED00E057
:10FC40000400FA050EB500210091CDE901106A46C5
:10FC500044F20100FFF7E4FF0EBD000010B50E4CAA
:10FC600003E0401C00E00020207020786178814291
:10FC700010D022786188E068A36802FB010003EBE2
:10FC8000C20153F83220898890472078A1888842A1
:10FC9000E9DAE6E710BD000000220020074B5B68B0
:10FCA00023B12AB120B10068037C1BB10820704742
:10FCB00007207047417442610020704720220020D5
:10FCC0002DE9FC47DFF87890D9F8043073B368B3B6
:10FCD000052902D20720BDE8FC87436933B3437C82
:10FCE000012B25D0002704460025884616468DF8AE
:10FCF0000050684600F038F801A806F079F8C8B15D
:10FD0000012101700F4944600968C0E90218C0E987
:10FD100004769DF8040089F801009DF8000000F0C9
:10FD200047F81420FFF7DEFB2846D4E70820D2E787
:10FD30000F46D8E704259DF8000000F039F8F3E7F6
:10FD400020220020041501400649496839B130B12C
:10FD5000416921B100210174022105F07DBE082016
:10FD6000704700002022002030B5EFF3108172B6FA
:10FD70000D4A9468012324B10370002900D162B6B2
:10FD800030BD93604FF0E023D3F88051074C2540FD
:10FD90001560C3F88041D3F8844154605A17C3F802
:10FDA000842100220270E8E70C2C0020FC06FFBC36
:10FDB0000B498A68002A11D000280FD1EFF3108078
:10FDC00072B60B684FF0E022C2F800314B68C2F8FF
:10FDD000043100228A60002800D162B6704700001A
:10FDE0000C2C00202DE9F043044687B0008800F079
:10FDF00001FB8146208802F0EFF9214F8046667AA8
:10FE0000208800223978A56800F042FBB9F1000F84
:10FE100033D06079400711D50721404603F05CFEDE
:10FE2000A0B108218DF80C1021880590ADF80E10B6
:10FE3000ADF8108003A801F0ADF907E02088B9788B
:10FE400000F012FB10B1404602F0B2F903208DF829
:10FE500000002088ADF802006079C0F380008DF8C2
:10FE60000400A079C0F380008DF805008DF80650DD
:10FE70008DF80760684601F08DF907B0BDE8F083A2
:10FE8000C8210020F0B50C4693B01F210726ADF81D
:10FE90000010ADF80410002750B1C17849070DD506
:10FEA0006A4602A9FFF73DFD002808D102AD02E035
:10FEB0000025ADF800706CB1E07810B1304613B099
:10FEC000F0BD01AA0AA92046FFF72BFD0028F6D1B4
:10FED0000AAA02E00022ADF80470BDF80400C3B223
:10FEE000BDF80000C1B2284672DFE8E72DE9F0470F
:10FEF0001F46DDF8208013468946040042D0EBB34C
:10FF0000404D012000262870EE70202219463E4800
:10FF1000FFF792F9C5E904784FF6FF702881AE61CA
:10FF20003948AE83AE773C212030FFF79EF9364842
:10FF3000217820300170A1788170E178C1706178FA
:10FF400041703149D4E90423C1E90C23D4E90223E7
:10FF5000C1E90A23D4E90623C1E90E23616AE1B1AC
:10FF600000F13C0100F1480241628A60636A1B882B
:10FF70000B80616A436A8988998000E002E0002171
:10FF8000436A07E00E20BDE8F087656AAD686D5CE6
:10FF90005554491C9D888D42F7D8A16AD9B11A4A97
:10FFA0009432A2F10C018A608162A36A9B888B80E3
:10FFB000A16A836A098819800021836A04E0A56A1E
:10FFC000AD686D5C5554491C9D888D42F7D894F8F6
:10FFD0002C1080F82C10216A49B10A490A310162BB
:10FFE000226A52884A80216A026A098811806168FF
:10FFF00001B141604946BDE8F04703482030FFF7B2
:020000040002F8
:1000000041BF0000502100205823002010B5018876
:10001000144C102918D011291CD01B2919D1007A91
:10002000002816D1E0780521401CB0FBF1F201FB5D
:10003000120000BF00F050F800280AD061690029C2
:1000400007D0BDE810400847C17B012901D1808855
:10005000208110BD00216171808821898842F8D1FA
:100060000120E7E75021002010B5022801D0032825
:1000700010D1094C607800280CD000206070E07826
:1000800000F02AF8002805D06169002902D0BDE8F7
:100090001040084710BD00005021002010B574DF4B
:1000A0000B4C01200B4960710020E0710620C870E4
:1000B00000210848FFF7E6FE002807D1E07800F0AD
:1000C0000BF810B1616901B18847002010BD000034
:1000D00050210020782300202DE9F0413D4C80463E
:1000E00086B0207848B184F8038004A801F046FB6C
:1000F0000498012628B1667067E0082006B0BDE8C4
:10010000F0810025A561344FA583A577787810B1DB
:10011000E078012806D0B87858B1E078012801D0FD
:10012000022806D1216919B126710820884700E00C
:1001300025714046FFF7B6FCE070216939B103280C
:1001400001D0042803D1387808B1607990B1A57145
:1001500000950295019503958DF800508DF8085093
:100160001C48E1781830052925D2DFE801F0300875
:10017000111D2100E571A67107208847E8E7A670E8
:1001800001908DF80060ADF80C50ADF80A5014E005
:100190000221A17001908DF80060B889ADF80C00C3
:1001A0003889ADF80A0008E0684605F0E3F802E097
:1001B000684605F003F9E07818B1684673DF002857
:1001C0009CD1216909B1A0788847002096E7A570E5
:1001D000F7E70000502100205823002070B50546A5
:1001E00001461C220F48FFF727F80F4C0026267007
:1001F000286830B1016861604068A060201D7ADF26
:1002000002E00948001D7BDF00280AD14FF6FF708D
:1002100060806670BDE87040044A00210448FFF722
:100220003DBD70BD2C24002070210020795D0200AE
:100230007462020070B51E4C068800231B49E289D7
:10024000102E15D01B4D112E1CD0122E29D0502E41
:1002500017D130F8061F914213D14189022910D1DC
:100260000C3000F013FA88B1BDE8704000F0FEBD1C
:1002700084884C800469CC60406908614B70002A16
:10028000F2D070BD4FF6FF7048804B702868FFF7C2
:100290005BFD0028F5D0A1690029F2D0BDE87040CF
:1002A00008478268CA60C0680861DDE770210020E5
:1002B0002C2400207462020002490A7D091D04F00A
:1002C0005DBE00004824002002460248C17D001D9A
:1002D00004F041BE4824002002460248017E001D71
:1002E00004F039BE482400202DE9F0470446038875
:1002F0003F4801228CB000F1150A102B09D0112BB8
:1003000055D01A2B71D1217AB2EB111F54D201238F
:1003100053E0027D417D05468A43011D06A804F095
:100320002DFE142206A901A8FEF786FFDFF8C09073
:100330000026374609F114090DF104080AE000BF50
:1003400008EB46001D2283884946281D009704F0CB
:10035000C7FD761C0198B042F2D8287DA688C0431C
:10036000C0B204F0DFFDA0F57F41FF3917D005EBE7
:1003700040000123868032465146281D04F023FEAA
:10038000012332464946281D04F01DFEE07B022869
:100390000BD000231649A2881631281D20E00CB08E
:1003A0000420BDE8F047FFF74DBC0123F2E700232E
:1003B000A2885146001D13E000230D490546A2887E
:1003C0001731001D04F0FFFD207A0221B1EB101F50
:1003D00001D2012300E000230549A2881831281D1D
:1003E0000CB0BDE8F04704F0EEBD0CB0BDE8F087FE
:1003F0004824002070B50A4E05460024317D2A4667
:10040000301D04F0A8FD40B1B17D2A46301D04F036
:10041000A2FD08B1022400E00124204670BD0000C6
:100420004824002010B50024204605F0D5FC28B152
:10043000641CE4B2182CF7D3182010BD0348012225
:10044000A240016811430160204610BD48240020ED
:1004500010B5044605F0C0FC002802D00148204435
:10046000407E10BD4824002070B505460C46084665
:1004700005F0B2FC002808D004482A460119001DE6
:10048000497EBDE8704004F066BD70BD4824002080
:1004900070B5064615460C46084605F09DFC00283A
:1004A00009D005482B4601193246BDE87040001DB1
:1004B000193104F088BD70BD482400207CB5054684
:1004C00008880C460930904201D90C207CBD684652
:1004D0006DDF0028FAD121880820685420881B216C
:1004E000401C80B2208029542088401C80B220808B
:1004F0002844DDF801100160BDF8051081802088D6
:10050000801D80B220809DF80010490800D0012194
:1005100029542088401C208000207CBD70470000AA
:1005200030B51A4B0D4604000FCB85B08DE80F0097
:100530002AD04DB31648214604604FF6FF70A080C4
:100540002868206100202075A073684663DF0028BA
:1005500018D120788DF812000120ADF81000A21CEF
:1005600004A9A0DF00280DD12946204604F007FC8D
:10057000002807D1012002F027FC002802D102F058
:1005800055FC002005B030BD0E20FBE7786202006C
:100590008421002038B5002824D0002922D00A88E0
:1005A000102A1DD0112A1ED0502A33D0512A19D119
:1005B0008A8883889A4215D111F8062F022A11D110
:1005C0004A88C3889A420DD10A7A042A0AD0062A98
:1005D00008D0052A06D0BDE83840891C02F0ECBEE0
:1005E0008988818038BD828889888A42FAD14FF60D
:1005F000FF718180007D0028F4D0BFF34F8F134836
:100600000168134A01F4E06111430160BFF34F8FA9
:1006100000BFFDE7044631F8060F62899042E1D140
:1006200048890228DED101F10C0000F02FF8A073F8
:100630002269002AD6D008B1012000E002208DF8FE
:10064000000069462046904738BD00000CED00E0F0
:100650000400FA0510B50446FFF746FE204603F0F5
:10066000EDFE2046FFF7E6FD204600F0E7F82046C5
:1006700002F036FE2046FFF7C9FC2146BDE81040D7
:100680000148FFF787BF0000D4220020007800F067
:100690000100704700B5164889B000230068079034
:1006A0005022144907A805F027F908B1FFF7CAFA44
:1006B0006A460121002005F009F908B1FFF7C2FAE6
:1006C0001720ADF81000684605F0F6F808B1FFF7FE
:1006D000B9FA094805F0E6F808B1FFF7B3FA074898
:1006E00005F042F9002801D0FFF7ACFA09B000BDCF
:1006F0003C62020084220020550602007D5902005F
:100700000149085C70470000446202000649095C28
:100710004FF0A040D0F81005C84010F0010000D004
:10072000012080F0010070474462020007490B5C21
:100730004FF0A041D1F804250120984020EA02039F
:10074000C1F808351040C1F80C057047406202003E
:100750000249085C012102F063BD00004062020012
:100760000249085C002102F05BBD0000406202000B
:100770000649095C4FF0A040D0F80405C84010F0CD
:10078000010000D0012080F00100704740620200AB
:100790007CB50024084E25460122305D00950023DB
:1007A0001146019502F0F6FC641C042CF4D3BDE85C
:1007B0007C4000F003B800004062020010B5002445
:1007C0002046FFF7C5FF641C042CF9D310BD10B5FB
:1007D00000242046FFF7C4FF641C042CF9D310BD8D
:1007E00010B50246064B4FF0FF3000215C5C94428E
:1007F00001D1084610BD491C0429F7D310BD0000E3
:100800004462020070B50C4E0C004FF000053060E1
:100810000BD0012000F0A4F808B1022004E0002071
:1008200000F09EF800B10B202070706810B9FFF73F
:1008300065F90546284670BD4821002010B51A4CC0
:100840000188606810290ED011292BD1401E6060EC
:1008500028D1FFF753F9002824D02168002921D09E
:10086000BDE810400847D0B900210122084600F039
:100870009BF808B107280FD107220221012000F0C0
:1008800093F808B1072807D104220221002000F0C4
:100890008BF820B1072802D0216801B18847606831
:1008A000401C606010BD00004821002010B50020F1
:1008B00000F0AEF908B1062806D1012000F0A8F931
:1008C00008B1062800D1002010BD00002DE9F04736
:1008D0000D468146FFF784FF0446042838D2DFF82E
:1008E00078801C481D4EA8F1100735B3012D0ED09D
:1008F000022D2DD104EB440030444578002D27D043
:10090000F968002924D02846BDE8F047084704EBE1
:100910004401755C0E44717859B179680E4A01EB57
:10092000810149000E3A8068FFF7CAF908B987F8D3
:100930000290B17808F80410E0E78068FFF704FA45
:1009400004EB4401314418F804008D78A842D5D056
:10095000BDE8F08748620200442100202C230020DB
:10096000FFF7D4BE01460F4810B50088042907D010
:1009700007290ED00A2914D1BDE8104004F040BD6B
:10098000132176DF0BE000280BD0BDE81040FFF705
:1009900059B9A0F57F41FF3903D1FFF77FFB082844
:1009A000F1D110BD2821002070B50023042810D2F9
:1009B0000D4D00EB4004012A02D101290CD0002288
:1009C000094E00EB4000304461B1012906D00229F4
:1009D00006D00723184670BD0E30C2B22A55F9E77B
:1009E0004270F7E78270F5E72C230020044A0146A5
:1009F0000020127AD20702D0084600F04FB87047A4
:100A0000342100202DE9F04106461F4800240F46FE
:100A10004160C0E90262B0071FD5002501221146DE
:100A20002846FFF7C1FF6D1C0446042D02D2002C9E
:100A3000F4D012E08CB97A0804211448FFF7B8F812
:100A400004000AD1FFF7A2F8040006D10F48104AAB
:100A50000021001FFFF722F90446F00701D0FFF73D
:100A600097FE74B909480B4A00210C38FFF716F9B4
:100A7000040006D10548084A01210838FFF70EF99D
:100A800004462046BDE8F081342100205462020073
:100A9000210C0200A923020085FB01002DE9F0478B
:100AA000594C05460026607818B100206070FFF7A9
:100AB00085FE0120554F4FF47A694FF4C87A4FF004
:100AC0006408182D2CD2DFE805F0890C0C2C3A476D
:100AD00051565A615A619B6969696969898C8F921B
:100AE0009B9B0020FFF744FE00284FF0000008D039
:100AF000FFF72EFE022D02D14FF4E16006E04846DA
:100B000004E0FFF72DFE022D2ED05046B0FBF8F189
:100B100025706068414300223868FFF7D1F8064627
:100B200059E00020FFF724FE28B10020FFF710FE57
:100B30004FF44870EAE70020FFF712FE14E00020AF
:100B4000FFF716FE00284FF0000002D0FFF700FE6E
:100B5000D5E7FFF705FED8E70020FFF709FE0028DC
:100B6000E9D00020FFF7F4FDC820CFE70020FFF711
:100B7000DDFD257007E000203FE025702BE0607070
:100B80000120FFF7D3FD00226168C5E760700120F6
:100B9000FFF7CCFD606800EB8001BCE77868FFF7E9
:100BA000D3F80646D5F1110000D01EB10220FFF7A0
:100BB000CFFD10E001280BD9C82110FB01F1B1FBDA
:100BC000F8F16068002241437868FFF779F806463B
:100BD0000220FFF7C5FD3046BDE8F087FFF7EEFDC8
:100BE000CBE7FFF7EBFDC6E7FFF7E8FD04E0FFF713
:100BF000E5FD0020FFF7B4FD0120FFF7B1FDBCE7E4
:100C0000FFF7E5FDB9E7000034210020486202004B
:100C100010B5FFF775FD032102F0E0FA002010BDCA
:100C200000780221FFF752BE05494FF0FF32082835
:100C300041F8202002D3084480F848207047000083
:100C4000742B0020F0B54FF0FF3512B100230826B9
:100C500001E008230C260C4C05E000BF54F823707B
:100C60007F1C04D05B1CB342F8D32846F0BD261885
:100C70005DB286F8305044F82310002AF5D1E1180F
:100C800081F84800F1E70000742B00200249084475
:100C900090F9300070470000742B002038B10549EE
:100CA000814204D80449814201D9012070470020C3
:100CB000704700006422002084220020044A01685A
:100CC000914201D0083101E0014938390160704793
:100CD000F42C002070B504464FF6FF750A462846EE
:100CE000AC4208D14FF480742146104603F062FBF9
:100CF000A04209D070BDFF2CFCD82146104603F05D
:100D00004CFB08B1204670BD284670BD70B5084C3C
:100D1000050009D010342168002907D00868206038
:100D2000496828468847F6E70834F4E770BD0000B4
:100D3000602B00202DE9F05F26484168F1B3DFF811
:100D400098B00E688146DBF8004087688078E11B28
:100D500021F07F45ED1CB0B9DFF880804FF4803082
:100D6000C8F84403C8F804031120FEF78FFB1120D4
:100D7000FEF7A2FB4FF0010AC8F800A02F2001F0F7
:100D8000BBFF89F802A0B54200D23546124BE819E4
:100D90003C3320F07F401860DBF800105A46091BF6
:100DA00021F07F41001B20F07F40C91C81420FD9F8
:100DB000106818602F2001F09FFF00E004E0BDE8FC
:100DC000F05F1120FEF78EBBBDE8F05F03F0A0BF1F
:100DD000BDE8F09F102200200415014000100140E2
:100DE0002DE9F04117880646B81D14460D46984275
:100DF00002D90C20BDE8F0813188072206290AD3E8
:100E00004FF4486C4FF6FF73614501D9994202D106
:100E10007088062801D21046ECE7604501D9984257
:100E2000F9D1994203D0984201D08142F3D80520EC
:100E3000E85520881221401C80B220802954208847
:100E4000401C80B220804119308804F090FF218836
:100E5000084480B220804119708804F088FF2188FE
:100E6000084420800020C5E7FEF7ECBEF8B5134823
:100E700001F07CFA114D0026114C0C3D30B1616936
:100E8000B9B101208DF80000684611E0287820B142
:100E9000616971B18DF80060F6E7687858B1A168B2
:100EA000084800220068FEF70BFF10B1A16901B1EC
:100EB00088472E70F8BD6168F2E700007C210020B1
:100EC0002C24002074620200F0B54FF0FF3622B1EE
:100ED0001268D24300230A4D0DE03246FAE7C45CA3
:100EE00062400824D70700D037462F4087EA5202D5
:100EF000641EF7D15B1C8B42F1D3D043F0BD0000E0
:100F00002083B8ED10B5034801F0B0FEBDE81040F5
:100F1000FEF7A4BEA08601007FB50C4610B10120EB
:100F200004B070BD2079002638B141F61D55012866
:100F30001BD0022826D00F20F2E702960396E06825
:100F40000190694601A803F015FE50B1029881880E
:100F5000E18000882081BDF80010029803F07EFE39
:100F600000E00A2002212171DAE70A4B6A460021DB
:100F7000A01D03F0BBFD38B1064908398E60CE6074
:100F80000A28CDD12846CBE702488188019803F092
:100F900065FEF5E7382200202DE9F0410026012505
:100FA000144C22E06068226900EBC607387805FA25
:100FB00000F1114217D08A43226102F0A9F80246DB
:100FC0003878E36805FA00F1194002FA00F3994213
:100FD00009D17978012901D0012100E00021514097
:100FE0007A6802B19047761CF6B220788642D9D34F
:100FF000BDE8F081EC210020044A09B900231370F8
:101000005268002A00D0104770470000E4210020F9
:101010000E4910B50A784C780023A24212D0521C17
:10102000D2B20A70022A00D10B70084A0B7818322B
:1010300052F8232002608868104420F07F408860C6
:10104000012010BD0360002010BD00001022002010
:101050003EB5094D38CD8DE83800ADF8041007498C
:101060008DF80620ADF8020000220978FFF710FA8B
:10107000684600F08FF83EBD08630200C8210020DA
:1010800010B503780022072B06D2DFE803F0050431
:10109000060C1C252B000A7010BD01220A70028963
:1010A0008A81828814E002220A7002898A818288F9
:1010B000CA81C2688A60007C062802D000200874B9
:1010C00010BD0120FBE703220A70C2888A810289D1
:1010D000CA81C068886010BD04230B70C0888881F5
:1010E000CA8110BD0520087010BD000070B5064D06
:1010F0000646002455F8241009B130468847641C80
:10110000082CF7D370BD0000242C00200EB5002958
:1011100011D011290FD0002200920292ADF80200E6
:1011200001910D2908D0862908D009208DF80000EA
:10113000684600F03DF80EBD0B20F7E70A20F5E702
:1011400001490968084700009021002070B5054D4D
:1011500006460024304655F824108847641C022CAB
:10116000F8D370BDA06202002DE9F04107460024CB
:10117000064E074D05E000BF56F824103846884754
:10118000641CE8788442F7DBBDE8F0815C2800202D
:10119000B821002070B5054D06460024304655F8AC
:1011A00024108847641C022CF8D370BDD062020062
:1011B0000149096808470000146302007FB504462E
:1011C000406858B10020039020780026384D06284A
:1011D0005DD2DFE800F05C05052641690120F2E7F9
:1011E000A08900F0B1F918B9E08903F051FD80B38E
:1011F000A089A0F54040ADF80200A07B8DF8040066
:1012000020780128606806D048B104208DF80000DD
:10121000606803901AE00028F8D00320F6E7012068
:10122000F4E7A08900F090F918B9E08903F030FDE7
:1012300078B1A089A0F54040ADF80200A07B8DF800
:101240000400606830B105208DF80000A0680290AD
:101250001AE01CE00220F7E7A08900F075F9B0B1B0
:10126000E089A0B9A089FF21A0F5404080B2ADF887
:1012700002008DF80410616881B107208DF800002C
:101280006E70AE7002F0E6FD684602F0BBFC687856
:10129000002802D06E7002F0DDFD7FBD06218DF8C2
:1012A000001002F065FEEBE708208DF80000EBE788
:1012B000A421002000B5114987B00978890702D41C
:1012C000022007B000BDA0F57F41FF3911D00521F4
:1012D0008DF8001001218DF80410ADF806000022F1
:1012E0001146684602F0EEF828B103F0E1FB002059
:1012F000E7E70420E5E70820E3E7000030220020CC
:1013000000B50E4887B00078800702D4022007B0ED
:1013100000BD06208DF8000000221146684602F04C
:10132000D1F840B10648017809B10121017303F0F9
:10133000BFFB0020EBE70820E9E700003022002097
:10134000242D002010B58CB014216846FDF78DFFC8
:101350001D480078810703D56846FFF7C7FE30E0D7
:10136000C0072ED1012000F013F900F0A5F90124E7
:101370008DF8144002F042F90C281BD2DFE800F08F
:10138000061006101A1809181A1216120B200CB0A3
:1013900010BD022000F0FCF8012000F0DFF8DBE7D0
:1013A000002000E003208DF8180003E00220FAE797
:1013B0008DF818400022114605A802F083F803F0CA
:1013C00077FB0020E3E700003022002038B504005E
:1013D00011D0694603F0CEFB88B10A48BDF8001071
:1013E00000EB0110818941B1A27A32B1491E81819D
:1013F0000020A07238BD052038BD062038BD0A2067
:1014000038BD0000042D00201FB501A9684603F077
:101410006DFB04B010BD07B513460A4669460020AF
:1014200003F064FB0EBD07B513460A46002168466B
:1014300003F05CFB0EBD20B119B10068086000200C
:10144000704705207047000038B50D46040015D0E0
:10145000A5B1694603F08EFB90B10A49BDF80020A2
:10146000606801EB02129189491C918128606068D3
:101470000C3068600120A072002038BD052038BD06
:101480000A2038BD042D002018B10323002204F0E7
:1014900097BD052070470223002204F091BD12B1D0
:1014A000022304F08DBD052070470000064A5178E4
:1014B000082906D0054B43F82100491C5170002033
:1014C00070470C207047000030220020242C0020A0
:1014D00038B504460A480D460078800701D402203A
:1014E00038BD54B16946284604F07EFE0028F7D185
:1014F000BDF800102180658038BD052038BD000092
:101500003022002010B504460D480078800701D431
:10151000022010BD84B1218802290FD8094800EBB0
:10152000011042896088121A032A07D404F052FE7F
:1015300000202080608010BD052010BD042010BD5B
:1015400030220020042D002043F6FE71A0F540401B
:10155000884201D8012070470020704702490A786C
:1015600082430A70704700003022002010B5044604
:101570000078182802D1FEF755FF207010BD10B575
:1015800004460078182802D1FEF74CFF207010BDE9
:1015900002490A7802430A70704700003022002096
:1015A00070B51346002206461546862905D0112936
:1015B00001D019B170BD012500E001220D4C73B1BD
:1015C0006179FEF765FF2A4621793046FEF760FF14
:1015D000002261783046FEF75BFF002203E061786D
:1015E000FEF756FF2A4621783046BDE87040FEF7E8
:1015F0004FBF0000CC21002010B5002907D1044CBA
:1016000013212068808876DF21680120087510BDCD
:1016100084210020F8B506461A481F461546007872
:101620000C46C00708D03046FFF738FB30B13CB15C
:10163000200507D00620F8BD0120F8BD0220F8BD26
:101640000320F8BD3068A04204D8716804EB05306F
:10165000884201D90520F8BD7DB1684603F076F9CE
:1016600068B100980221C0E900670172210B8181F5
:10167000058203F02DFA0020F8BD0420F8BD0720F4
:10168000F8BD000048220020084603F07BB90000A6
:10169000084A136823F00103136031B143F00203D9
:1016A00013604268002A03D0104723F00203F7E7D3
:1016B00070470000302100202DE9F0472748284CD2
:1016C0004FF01021001B0209496910464B1C03D141
:1016D0004FF0805149690903DFF888A09AF800703B
:1016E000FB0702D00020BDE8F0870023A14607E0F9
:1016F00009EB0314256815B1646804B1401E5B1C36
:101700009342F5D3002422E0002504F0FF0C2B4681
:1017100013E000BF09EB0316D6F80080B8F1000F04
:1017200004D0D6F80480B8F1000F05D1767BAE4224
:1017300002D9354603F0FF0C5B1C9342EAD309EB58
:101740000C13641C59601D7BA1EB053119608442A8
:10175000DAD347F001018AF80010C3E784220020A1
:1017600064220020482200200348406E042801D053
:101770000020704701207047342D002020B103491C
:10178000496E01600020704703207047342D00200F
:101790002DE9F84307461D48DDF820801E460078F5
:1017A00015460C46C0070CD03846FFF777FA50B103
:1017B0005DB154B145EA0400800708D00620BDE8B9
:1017C000F8830120FBE70220F9E70320F7E73868F8
:1017D000A04204D8786804EB8601884201D2052033
:1017E000EDE77EB1684603F0B1F868B100980121D9
:1017F000C0E900780172C0E90354868203F068F9F9
:101800000020DCE70420DAE70720D8E748220020A0
:1018100070B5174A17490446106E0B7800EB40006C
:1018200002EBC0009D0715D5022C02D0032C1BD162
:1018300002E001F01DFE17E04A78521CD2B24A7055
:10184000032A11D900224A70082103F091FC03F009
:1018500067F809E0580707D523F004000870526EB6
:1018600012B140F002000870BDE8704003F0E8B823
:10187000342D00204822002070B508B1012070BD31
:10188000184C0025207B08B1257301E000F0A2F878
:101890002078082824D2DFE800F02304080C102365
:1018A000141EBDE8704000F01FB8BDE8704000F0A5
:1018B0007FB8BDE8704000F061B8BDE8704000F04E
:1018C00037B808496088203901EB00104068BDE84E
:1018D000704001F073BE6560BDE8704001F07CBEF1
:1018E0000F2070BD242D00201049F0B48A1C002068
:1018F0000346A1F120050C18A67A3EB1A37205EBB0
:101900000014A68916B9A47B012C0AD0401C80B211
:101910000228F0D30B704B804B60F0BC41F61D5099
:1019200070471080F0BC00F043B80000242D002068
:1019300010B50F4CA4F12001608801EB00108189E3
:1019400061B1052020700B480221002381800168CD
:10195000BDE8104001220848FFF75CBE4168002343
:1019600001220548FFF756FE0421217010BD00003A
:10197000242D0020402200207422002038B50A497E
:10198000084803240B684268898803EB8101538867
:1019900004700020DB1C00909BB20448FFF7F8FEA7
:1019A00038BD0000242D0020402200207422002099
:1019B000074910B54888091D03F02AF918B1BDE898
:1019C0001040FFF7DBBFBDE81040FFF7B1BF0000DC
:1019D000242D0020F0B51D481D490125067802245C
:1019E0008B88A0F12002082E18D2DFE806F0041739
:1019F000171A212C2C160189491C018100214180D4
:101A000080F80C1002EB01131B7843B1002344183B
:101A1000491C89B2A3720229F4D30570F0BD0123D9
:101A2000F5E742685288D21C1A448A800470F0BDDF
:101A300046880D6802EB061256680E6055601381E9
:101A40008C80062100E007210170F0BD242D0020CC
:101A500040220020F0B504460088384D8DB0502853
:101A60001ED0522802D0542828D103E0A08800F0CC
:101A7000D9FE23E006208DF81400A08800F0ACFB0E
:101A8000ADF81600A188ADF8181000F05DF9A08837
:101A90000022E978FEF7FCFC05A8FFF751FB0DE0FA
:101AA000207B01280AD1A07A012807D12089A0F53E
:101AB0002451023902D1A08800F0EEFEA878FEF78A
:101AC000C7FCC8B108A8FEF7F7FB142208A96846AE
:101AD000FDF7B2FB00246E460BE000BF06EB4407A7
:101AE000A978B888FEF7C0FC10B1B88800F09AFE5B
:101AF000641C0098A042F1D86878FEF7A9FCC8B130
:101B000008A8FEF7D9FB142208A96846FDF794FB44
:101B100000246E460BE000BF06EB44076978B888E6
:101B2000FEF7A2FC10B1B88800F0B6FE641C009865
:101B3000A042F1D803F042FB0DB0F0BD8821002097
:101B40003EB504464088ADF802002078A8B10128CF
:101B50001FD0022810D1207900280DD0608800F015
:101B60007BFAA0F57F41FF3906D00F490122C978E1
:101B7000FEF78EFC03F022FB3EBD00208DF8000036
:101B80006846FFF7DDFA608800F066FA00F04AFE6A
:101B90003EBD01208DF80000A088ADF80400684625
:101BA000FFF7CEFA3EBD00008821002010B50446A4
:101BB000007801280FD1608800F034FE608800F0C2
:101BC00089F9002807D0044960880122C978BDE856
:101BD0001040FEF75DBC10BD8821002010B5104CF0
:101BE00000202070FEF71EFC6070FEF71BFCA0704A
:101BF000FEF718FCE070FEF715FC207161781829DB
:101C00000BD0A178182908D0E178182905D0182818
:101C100003D001202070002010BD032010BD000063
:101C2000882100202DE9F04186B000F0A5F8684633
:101C3000FEF742FB00246D464FF6FF77DFF8348055
:101C40000FE000BF05EB4406B08800F0C5FAB842CB
:101C500005D1B088012298F80310FEF719FC641C26
:101C6000A4B20098A042EDD803F0A8FA06B0BDE8EF
:101C7000F0810000882100200178072902D14088E6
:101C800000F00ABE7047000010B504460A484178CB
:101C90002046FEF7E9FB68B10848002101EB41024C
:101CA00000EB82025288A24201D1C8B210BD491C89
:101CB0000829F3D3FF2010BDA02100207C240020A0
:101CC00070B5094D094E002404EB440005EB80007B
:101CD00071784088FEF7C8FB20B1641C082CF3D350
:101CE000FF2070BDE0B270BD7C240020A021002048
:101CF0002DE9F041124E07460125BD403068FEF740
:101D000023F800280DD10F4C2069284207D138460E
:101D100001F0FEF90028E06805D0284304E0A8435C
:101D20002061BDE8F081A843E0602069284320617C
:101D3000A1683068BDE8F0410022FDF7C1BF000096
:101D40001C630200EC2100201CB5054AD2E90212F6
:101D5000CDE900120022694601F021FE1CBD000001
:101D60008C62020003484FF6FF71818001210170EF
:101D7000002070479421002010B54FF6FF7001F04D
:101D800045FD03498880BDE8104003F043BA0000D8
:101D9000942100202DE9FC41804600F01DFA00242A
:101DA00003250127A0F57F412646FF3908D06A4662
:101DB000082101F0CFFD18B90198841D86880568B7
:101DC00032462B4621464046A9DF042804D0082885
:101DD00004D00B2808D002E0112000E00020002FE2
:101DE00000D10B20BDE8FC810027A80701D5012503
:101DF000E6E73443F5D0002426460325E0E72DE945
:101E0000FC41804600F0E8F90746A0F57F40FF3826
:101E10000ED001252A466D1C0026ADB26B46082166
:101E2000384601F0C1FD040006D0072C24D024E080
:101E300043F20200BDE8FC81019903230A1D0B60F7
:101E40004046891DAADF040004D00C2C08D0052CC4
:101E500008D008E00821384601F03EFE04460CE0B8
:101E6000012600E000240821384601F021FE00B1DF
:101E70000324002ECED100E00C242046DAE7000037
:101E80001FB504460078012816D12079012813D106
:101E9000608802AA012101F05DFD68B902208DF879
:101EA00000006088ADF802000398094900788DF8B9
:101EB0000400096868468847054808388088A0F506
:101EC0007F41FF3903D0BDE81F4003F0A3B91FBD18
:101ED0009C2100201CB500F07FF96A46012101F029
:101EE00039FD08B100201CBD019800781CBD000020
:101EF0002DE9F041084C07464FF6FF7643F2030503
:101F0000324661883846A7DFA84203D16088401C6A
:101F10006080F5E7BDE8F081942100208188A1F57B
:101F20007F42FF3A03D0008808B1012070470020AB
:101F300070473EB5027802230C46B3EB520F17D11F
:101F4000B0F80110ADF80010C1788DF8021081884A
:101F5000ADF8041080798DF8060002AA01A9204688
:101F6000FDF7E7FD032202A96846FDF789F908B1EC
:101F700000203EBD01203EBD10B50C46FFF784FE9B
:101F8000FF280CD0074900EB400001EB80004168BE
:101F900021600189A180807AA071002010BD0520F8
:101FA00010BD00007C24002070B5018890B010297D
:101FB0004FD1011D34226846FDF73EF99DF804001B
:101FC0004FF6FF76032134466D46B1EB500F2AD011
:101FD00001F080FE9DF8040040080ED001280CD0CE
:101FE000022820D118E00F99281D1131FDF786FC39
:101FF00018B100BFBDF8344015E00EAA0DA90720A6
:1020000001F040FE0028EED10DE00F99281D491C7B
:10201000FFF78FFF0028EDD10EAA0DA9072001F0D0
:1020200031FE0028F1D1BDF80000291D00F0C2FDED
:10203000B4420ED0BDF80000214600F07EF8BDF895
:102040000000ADF8360001208DF834000DA8FFF730
:102050007DF810B070BD0000094A002101EB41037A
:1020600032F82330834205D101EB410002EB8000BE
:1020700040887047491C0829F0D34FF6FF7070471D
:102080007C24002010B50D4C18200D4A60700020F3
:102090004FF6FF7100EB400302EB8303401C5980B5
:1020A0000828F7D3FEF7BEF96070182803D0012086
:1020B0002070002010BD032010BD0000A0210020D2
:1020C0007C24002070B504460D46401C00F05CF9ED
:1020D00000280ED01022691C601CFDF7D1F848B111
:1020E0005FF0000605F1110104F11100FDF706FC97
:1020F000304370BD0126F5E7018811B94218927886
:102100000AB101207047491C0829F7D30020704705
:1021100010B50C460346FFF7EFFF00280AD01888D9
:102120002188884205D10822A11C981CFDF7A8F837
:1021300008B1002010BD012010BD01F06DBF10B529
:102140000446007888B0002828D12079072825D1B6
:10215000608801AA072101F0FDFB00281ED101F0D3
:10216000B9FD1DE06088BDF80010884218D00499C0
:102170000298FFF7A7FF98B16088FFF76DFFADF8F1
:10218000160000208DF814006088ADF81800BDF826
:102190000000ADF81A0005A8FEF7D8FF08B010BD82
:1021A00003AA6946072001F06DFD0028DAD1F5E7A2
:1021B00070B50446FFF750FF0546204601F0CDFB01
:1021C0004FF6FF7104468D4203D014B9284601F042
:1021D00023FF204670BD000010B5FFF755FDFF2816
:1021E00005D0044900EB400031F8200010BD4FF647
:1021F000FF7010BD7C2400203EB5044601F06AFD4E
:102200000EE0019920464631FFF782FF28B9019977
:1022100020462A31FFF77CFF10B1BDF808003EBD13
:102220006A4602A9072001F02DFD0028E9D14FF6EA
:10223000FF703EBD2DE9F0410F4628B10120FFF7A8
:102240008DF90120BDE8F081397961B10026264D74
:1022500001290DD0254C4FF002080229206822D018
:1022600003293CD128E001F0B7F90121397134E0AC
:102270005FF0000005EB0011097802290CD0401C2A
:1022800080B20228F6D30220FFF782F90120FFF77F
:1022900065F941F61D50D5E705EB0014606801F0C3
:1022A0008DF9267019E00146002301221048FFF73E
:1022B000B1F9A4F804800FE001F080F90A4922681E
:1022C0002031498805EB01114B6823604A60A288E0
:1022D0000A81A4F804800E703E710028B2D001205B
:1022E000FFF73CF90E20ADE7042D0020402200202E
:1022F00074220020F8B51C4C2078002832D0E06809
:10230000002658B10025607800282BD1684648DFA8
:10231000052805D030B1FDF795FC0AE00125F2E76C
:10232000012606E0009800F023FE216909B100981B
:1023300088479DB96078002814D16088ADF8000006
:102340006946A06861DF052803D020B1FDF77AFC5B
:1023500004E0012502E0D4E902018847002ED2D032
:10236000002DE6D0F8BD00004C2200200549408831
:102370000A88904204D34988884201D801207047D6
:1023800000207047742100200021425C0AB1012026
:102390007047491C1029F8D300207047800701D0EE
:1023A00000207047012070470348017AC90702D016
:1023B0000078FEF773BB7047342100202DE9F04709
:1023C000234D81461F46287A0E469046084302D088
:1023D00026B1002104E00520BDE8F0871C4910313A
:1023E000484603F063F90446014600224846FFF7D9
:1023F000D7F81FB121464846FEF788FE112C0FD0B2
:1024000005DC5CB1082C09D00D2C06D106E0862C29
:1024100012D0A4F54050023800D003242046DBE758
:102420003246E9784846FEF733F84246A9784846EE
:10243000FEF72EF80024F1E73246E9784846FEF729
:1024400027F84246A9784846FEF722F8E6E700005A
:10245000CC2100202DE9FC4117460C00064604D093
:102460002078C00705D0012004E000217EDFBDE810
:10247000FC8102208DF804003046FFF7ADFE0546D2
:10248000A0F57F40FF3808D001A800902B463A46BF
:102490002146304600F021F806E020782146C007AA
:1024A000304603D000F07DF804460BE07EDF0400E8
:1024B0004FF00000009007D000220123294630464B
:1024C00002F01CFE14B106E00122F6E79DF80410AC
:1024D000304602F03DFE2046C9E72DE9F04F85B0B9
:1024E00090468946834600259A462E4601AA072132
:1024F00018460E9F01F02EFA040008D1029D95F8AF
:102500004400183510F0010601D0029D343558EA18
:1025100004004FF000080FD175B126B905F1120083
:10252000FFF7EAFD40B12A4605F11201584685DF62
:10253000044687F8008021E00CB1052C1ED199F8E3
:102540000000C0070DD003AB01220721504601F067
:102550002BFA04000AD10721504601F01FFB0400AA
:1025600004D1494658467EDF040007D00721504673
:1025700001F09EFA10B1052800D00324CDF80080A8
:10258000387808B1012300E0002344B1002251460D
:10259000584602F0B3FD05B02046BDE8F08F012299
:1025A000F5E7FEB50F46064601F0CAF90546A0F567
:1025B0007F40FF381ED001AB01220721284601F0E1
:1025C000F3F904000AD10721284601F0E7FA0400D4
:1025D00004D1394630467EDF040007D00721284663
:1025E00001F066FA10B1052800D003240120009004
:1025F0005CB102E003240020009000220123294660
:10260000304602F07BFD2046FEBD0122F6E70000C9
:102610002DE9F041134D0F46164680462978FDF707
:1026200023FF00281BD04046FFF7D6FD0446A0F547
:102630007F40FF3813D069784046FDF715FF38B169
:1026400033463A4621464046BDE8F04101F052B8D3
:10265000324639464046BDE8F041FEF7F9BCBDE8D8
:10266000F0810000C82100202DE9F04385B08146AB
:10267000FDF7EEFE002820D06846FDF71DFE002481
:102680006E4617E006EB44054946A888FDF7ECFEC8
:1026900078B10B4FA888B978FDF7E6FE8046A88888
:1026A000F978FDF7E1FE0146A88801234246FFF7CD
:1026B00085FE641C0098A042E4D805B0BDE8F08314
:1026C000CC2100202DE9F043264CA4F110092278FA
:1026D000D9F8048099F80350404694F801C0D9F81D
:1026E000086031E002EB42036168521C01EBC30158
:1026F000A378D2B2934200D100220B78022B02D0F1
:10270000032B21D11DE003464F68194603E0B9426F
:1027100003D00B46C969B9B1F9E7A9B18B4205D11C
:10272000C06918B9104E0125B56000260F68C96947
:10273000D96149B10B683B440B6005E00174C06985
:1027400000E000210028F9D19445CBD1C9E9010668
:1027500089F80350404502D00120BDE8F0830020F5
:10276000FBE7000020220020001001402DE9F0418D
:102770002A4F0446002607F11005D7F804803EE0F2
:1027800002D02046E4691DE02878696800EB400229
:10279000401CC0B201EBC2012870AA78904200D15F
:1027A0002E700A784868012A2BD1027C4ABB8A68BD
:1027B0004260CA6882600A69C26049698161F978C9
:1027C00001B146604368BA68DFF854C0991A21F035
:1027D0007F41614502D28268114406E0D11A8268C5
:1027E00021F07F418A4202D9511A016000E006605F
:1027F0004660012186600174C66103F00FF9002C68
:10280000BED1287869788842BED17968414502D026
:102810000120BDE8F0810020FBE70000102200202D
:10282000FFFF7F00FEB504460026A0F57F40FF387D
:102830002FD02046FFF7AEFA050013D00B2D15D090
:10284000112D11D0A5F5405002381CD009208DF86B
:1028500000002046FFF7C0FCADF80200ADF80440D0
:1028600002950DE0022002E001260CE003208DF825
:1028700000002046FFF7B0FCADF80200ADF80440C0
:102880006846FEF75DFC0348324681782046FDF736
:10289000FFFDFEBD88210020FEB504460026FFF79F
:1028A000AEFA0546112818D003DCA5B10C2D06D1CF
:1028B00015E0862D27D0A5F5405002381CD0092000
:1028C0008DF800002046FFF787FCADF80200ADF858
:1028D000044002950DE0012002E001260CE00720F3
:1028E0008DF80000ADF804402046FFF775FCADF808
:1028F00002006846FEF724FC044832464178204630
:10290000FDF7C6FDFEBD0820EAE700008821002093
:10291000F8B5054600780C46002620420FD100206D
:102920008DF800006846FDF71FFA2878204202D192
:102930002043287001269DF80000FDF739FA304643
:10294000F8BD000098B04F4A40F6CD410320FEF795
:1029500059F808B1FDF776F969460020FDF752FFF6
:1029600008B1FDF76FF99DF8000002287DD0002422
:10297000FDF790FE204601F05DFB9DF8080042A1A6
:1029800020F00F00401C20F0F00010308DF80800FF
:10299000112202A87CDF08B1FDF754F9002400944D
:1029A0005020ADF80000A0200194ADF80200ADF871
:1029B00004404FF4C870ADF8060068467ADF08B1ED
:1029C000FDF740F93C2101A8FCF74FFC02208DF8EF
:1029D000040001258DF8065006208DF807002F48C9
:1029E0000690ADF81450202110A8FCF73EFC4FF4DF
:1029F000967014908DF84350B4201590284B10AA6F
:102A00000021009401A8FDF771FA08B1FDF71AF949
:102A10002448CDE9000404208DF804008DF8050059
:102A200069462148FDF77CFD08B1FDF70BF91C2133
:102A30006846FCF71AFC4FF42030CDE900404FF413
:102A40007020029003208DF80C001848059018485B
:102A50000690ADF80E408DF810406846FDF7BEFBBD
:102A600008B1FDF7EFF8032000E002E0FDF734FBCA
:102A700002E001247CE73EDF0028FCD0FDF7E2F80D
:102A8000F9E70000650902004E6F726469635F42F6
:102A90007574746F6E6C6573730000002A210020DA
:102AA000BD3202001D050200D42200209D33020029
:102AB000690E020070B5144682880E4605462088CD
:102AC000111D0144921C994201D8FE2A01D90C2003
:102AD00070BD521C32542088FF21401C80B22080DF
:102AE00031542088401C80B220808119288803F04E
:102AF0003EF92188084480B22080AA8842B1A968A2
:102B000041B13044FCF798FB2088A9880844208014
:102B1000002070BD072070BDF8B50E460178144640
:102B20000546012901D1687830B12088821C9A427B
:102B30002DD8012902D006E00720F8BD69780144AC
:102B4000891C994223D8181A801E87B2ADF80070EC
:102B50002188B01C084469467DDF0028EDD1287823
:102B6000022805D1BDF80010B94201D809210AE0B8
:102B70000821012805D16878B84202D8ADF80000D4
:102B800001E0ADF80070BDF80000FE2801D90C206E
:102B9000F8BD2288401CB0542088401C80B22080A0
:102BA00031542088401C2080BDF80010084420804B
:102BB0000020F8BD70B505460C004FF0FF0020D096
:102BC0004FF6FF76B5421CD00E48012241782846C8
:102BD000FDF75EFC2846FFF757F8FF2803D1FFF703
:102BE0006FF8FF280DD0084B00EB400203EB820189
:102BF0004D8023F8226022684A60A2880A81A27967
:102C00008A7270BDA02100207C24002070B54FF690
:102C1000FF750E46A84201D1002000E0401C84B29E
:102C200008E02146304601F0E0FB08B1204670BDC7
:102C3000641CA4B2FF2CF4D9284670BDC20800F071
:102C400007030120895C98400840704700F18040EC
:102C50000068002800D00120704708B500F18040CE
:102C6000002101600068009008BD000000283ED0EF
:102C70001F49204A096800BF00BF00BF00BF00BF56
:102C800000BF00BF00BF91422FD000BF00BF00BFF8
:102C900000BF00BF00BF00BF00BF00BF00BF00BF3C
:102CA00000BF00BF00BF00BF00BF00BF00BF00BF2C
:102CB00000BF00BF00BF00BF00BF00BF00BF00BF1C
:102CC00000BF00BF00BF00BF00BF00BF00BF00BF0C
:102CD00000BF00BF00BF00BF00BF00BF00BF00BFFC
:102CE00000BF00BF00BF00BF00BF0138C3D17047A5
:102CF000602200200024F40000283ED01F49204A12
:102D0000096800BF00BF00BF00BF00BF00BF00BF19
:102D100000BF91422FD000BF00BF00BF00BF00BF67
:102D200000BF00BF00BF00BF00BF00BF00BF00BFAB
:102D300000BF00BF00BF00BF00BF00BF00BF00BF9B
:102D400000BF00BF00BF00BF00BF00BF00BF00BF8B
:102D500000BF00BF00BF00BF00BF00BF00BF00BF7B
:102D600000BF00BF00BF00BF00BF00BF00BF00BF6B
:102D700000BF00BF00BF0138C3D1704760220020F0
:102D80000024F40070B50E4C0B4601462568002067
:102D90006E0702D5A80701D50A2070BD45F00100D5
:102DA000206098B2134602460648FEF733FC2168BD
:102DB00010B121F0010101E041F00101216070BD7D
:102DC00030210020642200200249042008600020F5
:102DD0007047000030210020F8B50E4C0D46064625
:102DE000216800204F0702D5880701D50A20F8BDC9
:102DF00041F001002060009393B22A463146064814
:102E0000FEF7C6FC0028F2D1216841F001012160E3
:102E1000F8BD00003021002064220020002258214B
:102E20000148FEF751B80000082A002070B511498A
:102E300000204FF4AE7508702A460F490F48FCF782
:102E4000FBF90E4C2068401C04D0FFF7E7FF216817
:102E500081420ED029460948FCF707FA012060603C
:102E6000002000F00DF8002803D0BDE87040FCF70A
:102E7000E9BE70BDE421002000F00700042A002014
:102E800070B50546174C01E0FEF73CF820780028A5
:102E9000FAD101202070656003F029F80022012199
:102EA0001148FFF76FFF0728F6D00025B0B9FFF7EC
:102EB000B5FF0E494FF4AE720860A1F5AE70FCF795
:102EC000BBF900BF03F013F8094B57220949064824
:102ED000FFF782FF0728F5D0002801D025700320D6
:102EE00070BD0000E421002000F00700042A00204B
:102EF000F90F0200A828002070B50F4C002520789B
:102F000008B1852516E00021A16061602161E160C2
:102F10004FF0E020D0F80001012610F0010F03D19E
:102F20000721002000F029F802F018FD08B9034835
:102F300006602670284670BD602B002018050040F2
:102F400038B500208DF800006846FCF70DFF074CEF
:102F5000207808B9FFF7D0FFE068401CE06001204E
:102F6000A0709DF80000FCF723FF38BD602B002007
:102F7000002801D1FDF7CABE70474907090E002895
:102F800006DA00F00F0202F1E02282F8141D03E0DD
:102F900000F1E02282F8001400F01F0201219140AC
:102FA0004009800000F1E020C0F88012C0F8001154
:102FB000704700002DE9F0418846054601F078F899
:102FC000234E002828461AD0FDF760FE304490F8C2
:102FD00048008009032802D001280ED007E04FF0F6
:102FE000A040D0F81005E84010F0010F05D00321F3
:102FF0002846BDE8F04100F002B90221F8E701F0EF
:1030000063F8002822D02846FDF740FE04464FF41E
:10301000807000EB84000F4F81B207EB8400D0F882
:10302000102542F00102C0F81025084600F018F9FA
:10303000B8F1000F0AD02846FDF728FE56F8200008
:10304000002803D00120A040C7F80403BDE8F081A8
:10305000742B0020006000402DE9FC41DFF8A480C3
:10306000044608EB0400002790F930001346C0170F
:103070000E46401C01D0082741E0F2781946204650
:10308000FDF7E0FD0546401C38D0B07850B14FF058
:10309000A04000EB8400D0F8001721F00201C0F836
:1030A000001707E000217378204600910A4601913D
:1030B00000F082F8F078C0B11348317800EB850059
:1030C000D0F81025114B1A40C0F810254FF4F852D3
:1030D0004FF4403302EA042203EA01410A43D0F8E4
:1030E00010150A43C0F8102509E008EB05003278F6
:1030F00010F8481F41EA8211017000E004273846A9
:10310000BDE8FC81742B002000600040FFE0FCFF64
:103110004FF0A041D1F81015C14011F0010000D0CE
:103120000120704770B5144D95F8540008B108207F
:1031300070BD0020411E2A18401CC0B282F8301019
:103140002028F8D300242046FDF76EFD641CE4B26D
:103150000C2CF8D307210620FFF70FFF4FF4BE70A9
:1031600000F07EF805494FF00040C1F8040301204B
:1031700085F85400002070BD742B002000600040D2
:10318000034890F85400002800D001207047000048
:10319000742B002070B541EA4201DDE904564FF07E
:1031A000A04441EA830141EA052104EB800041EAA1
:1031B0000641C0F8001770BD70B541EA4201DDE973
:1031C00004564FF0A04441EA830141EA052104EB93
:1031D000800041EA0641C0F8001770BD4FF0A042E0
:1031E00002EB8000D0F8002722F44032C0F800271C
:1031F000D0F8002742EA0141C0F8001770474FF0AD
:10320000A04202EB8000D0F8002722F44032C0F840
:103210000027D0F8002742EA0141C0F800177047A4
:1032200001224FF0A043824011B1C3F80825704736
:10323000C3F80C257047000018B5084B6C460144D4
:103240001B68009306E000BF54F82030D3F8103517
:10325000401C08C28142F7D818BD00001863020064
:10326000034908B50844002101600068009008BDCA
:103270000060004002494058012800D000207047FB
:10328000006000404058002800D00120704708B579
:10329000002242504058009008BDD0F80403084076
:1032A00000D0012070474058002800D0012070470E
:1032B00008B5002242504058009008BD10B550B1EA
:1032C00003280CD10220FDF791FB002807D0BDE8B0
:1032D0001040FCF7B7BCBDE8104002F091B810BD3B
:1032E00010B50446008888B03B281FD009DC0228AE
:1032F00026D010280FD0112816D10020FDF776FB1C
:1033000017E0512820D0552842D056280CD1A0884B
:10331000132176DF0DE00720FDF768FB08B1FCF70D
:1033200091FC1D49A088088008B010BDA088132119
:1033300076DF0028F8D008B0BDE81040FCF782BC6A
:10334000A088002167DFF4E71022A11D04A8FBF785
:1033500073FF9DF810100029E6D09DF8180004288E
:1033600003D0062801D00528DED102290ED0012085
:103370008DF800004FF4C170ADF80400A0886946D4
:10338000A8DF0028D0D0FCF75DFCCDE70220EFE7F6
:10339000A0881721ADDFCCE7282100200078002885
:1033A00007D104483B21008876DF002801D0FCF7D4
:1033B00049BC704728210020F0B58DB00026044696
:1033C000059602200696079608968DF81400A07BB5
:1033D0008E46012720B18DF81A70ADF8186003E011
:1033E00040F2FD10ADF81800A08805A9A8DF11284B
:1033F000FAD0BDF81800002832D19EF80C00012840
:1034000030D0022502960321ADF83010019620211C
:103410008DF82C108DF82D00039604968DF82E5003
:10342000E088ADF804000CA803900BA88DF8067096
:10343000ADF808600490A08801A9A6DF012D0FD186
:103440009EF80C0001280BD1226920461AB18DF894
:10345000006069469047044887650448FFF710FDFF
:103460000DB0F0BD0125CDE7042A0020F9150200BA
:10347000134A10B500215170017A012912D0022996
:103480001DD18189491C8181C189491C89B2C181B1
:10349000028A914213D1002101F06AFEBDE810407A
:1034A00001F03EBA838AC28A4FF480619C1A8C4232
:1034B00000DAA1B2114489B2C1829942EBD010BDA9
:1034C00048220020F8B51E4D17460E4601466A6F89
:1034D0000020032A33D805F17804C6F1080C636C88
:1034E00063452CD895F87000104400F00300C0EB41
:1034F000C00005EB80001C22FBF79EFE686F401C9D
:103500006867DEB194F8440094F840100023084442
:1035100000F0070004EBC00000900AE007EBC302D4
:103520000098D2E90012C0E900126846FDF7C6FB18
:103530005B1CB342F2D3606C304460640120F8BD80
:10354000442C00200389CA1C1A4402814289511A62
:10355000C91E4181704700002DE9F04700F58055F4
:10356000002700F10804022090460E460880DFF88C
:10357000489012E02046FEF7D1FCD0B1A068D9F8FF
:103580000420904201D9C9F804006088318804EB16
:1035900080040844C01C30800C34AC4202D2206845
:1035A000401CE7D1B8F1000F01D088F80070BDE8E9
:1035B000F0870127E9E700003022002008B500214C
:1035C000009101460223024A0248FEF7E1F808BDD5
:1035D000306302007422002008B5002000900448E7
:1035E0000223044A01680448FEF7D2F808BD00002F
:1035F0004022002028630200742200202DE9F05FA1
:103600000025374FDFF8DC80DFF8DC90DFF8DCB036
:103610002C46AA462E46386800EB06300268424522
:1036200005D1334A4168891830D001290DD00021D5
:103630004FF4806250F821305B1C33D009EB041149
:1036400003200870641CA4B219E0BAF1000F09D07D
:10365000022209EB0411641C0A70DBF800304B6095
:103660000A81A4B200220BF10401CBF80000FFF79D
:1036700073FFBBF80400022830D008200543761CF5
:10368000B6B2032EC7D3E8B2BDE8F09F09EB041130
:10369000002201F8042B01C18A1DFFF75DFF45F0F0
:1036A0000205CFE7491C9142C4D3DBF800205946FC
:1036B0005AB109EB041102220A7048600A480A81D3
:1036C00020304480641CA4B205E008600220ABF8FE
:1036D00004004FF0010A45F00105D0E70420CDE7D2
:1036E00074220020DEC0ADDE042D00204022002028
:1036F00002FEE10E70B5184D0E46044623CD86B08D
:103700008DE82300154DADF80420ADF802408DF88A
:103710000630A9782046FCF7A7FE18B13046FEF720
:1037200047FD0FE00721304600F0C2F950B10528EF
:1037300008D109218DF80C100490ADF80E4003A8B3
:10374000FDF728FD002229782046FCF7A1FE6846F7
:10375000FDF720FD06B070BDFC620200C82100200C
:10376000F0B585B00746FCF773FE002814D0684614
:10377000FCF7A2FD00246D460BE000BF05EB4406FC
:103780003946B088FCF770FE10B1B08802F02CF812
:10379000641C0098A042F1D805B0F0BD70B5054D8D
:1037A00006460024304655F824108847641C052C32
:1037B000F8D370BDAC6202003EB5104D002400BFCE
:1037C00004EB840005EB800002F0D4FB641C082CA1
:1037D000F6D30124502008210094CDE901100949B5
:1037E000C200074B01F5207000F0A8FC08B10320CF
:1037F0003EBD0348447000203EBD00007C270020F1
:10380000B0210020EC24002000F038BA00F038BAD3
:103810002DE9FF4100260446009601960296039684
:103820004088ADF8020020798DF8040037462179F0
:10383000608802F077FB21783F4D0A2947D2DFE804
:1038400001F005053319193537393F4468B1417C1A
:10385000C9070AD002F09EFB8DF80070207801287D
:1038600000D000208DF808001AE001208DF800003B
:10387000A06823E078B18168A26891420BD1417CB5
:10388000CA0708D06A6821F00101521C41F0040106
:103890006A6041741BE002208DF80000E06803902C
:1038A0006846FFF77BFF12E003200BE0042002E0F4
:1038B000052007E006208DF80000E0680290EFE7A1
:1038C000012607208DF80000EAE7E06802906868AA
:1038D000002826D0194C002505EB850704EB87004E
:1038E000417C4A0703D4C1F3400131421FD08178A3
:1038F00034F8270000F0F0F8C8B105EB8501862800
:1039000034F82110ADF8021004EB870189788DF8A6
:10391000041008D009218DF8001002906846FFF7C6
:103920003DFFBDE8FF8108208DF80000F6E76D1C23
:10393000082DD1D3F5E70000B02100207C2700201E
:1039400000F055BA08B513889B0000936B4600F051
:10395000C9F908BD002300F0C5B938B505460024F3
:10396000204609E08178284600F0A2F810B1052829
:1039700000D003240098401C00906946284602F0BD
:10398000E3FA0028EED134B9284600F034FA10B139
:10399000072802D00324204638BD0724FBE713463E
:1039A000002200F0D3B900002DE9F0475FEA0308D8
:1039B00015460E46824604D0072E05D0082E17D194
:1039C00002E00E20BDE8F08795B1082D10D85046D2
:1039D00000F01CFA60B14FF000093146504602F089
:1039E000A1FA041E25D0E068A84213D24F460AE08F
:1039F0004FF00700E6E7207C3844C1B22B4800F0C6
:103A0000D1FB7F1CFFB2E068B842F4D8204602F038
:103A1000B1FA0EE017D9EFB207E0207C3844C1B20A
:103A2000224800F0BFFB7F1CFFB2E068B842F4D828
:103A30004CB95746FF214FF6FF7002F073FA041E8F
:103A400005D00780A670207CFF2802D00CE0112052
:103A5000B8E72946154800F043FB0146204621748B
:103A6000FF2913D04FF00109E560217C0F4800F0D9
:103A700085FB02000DD0ABB23146404600F052FA51
:103A8000B9F1000F10D0082E05D00DE002F072FA47
:103A9000DDE7032096E7B8F800006FF0050101EBC1
:103AA0008000D8F80410888000208BE76C27002065
:103AB00070B5002402F036FA05000BD0686820B11A
:103AC00000F0BDF9040000D00324284602F062FA99
:103AD000204670BD052070BD7CB50D460646072901
:103AE00003D0082D01D007207CBD0020009001905C
:103AF0008DF802502946304602F014FA040004D032
:103B0000607CC00703D000207CBD05207CBD217CEB
:103B1000204800F033FB020022D029466846E368C3
:103B200000F095F9684602F0EBF904F108036946E4
:103B30003046626800F00AF90146627C1648530775
:103B400004D5930702D543685B1E436051B1112928
:103B50000DD0862915D0072900D0032108467CBD49
:103B600003207CBD22F0060040F0010010E0416817
:103B7000491C416022F0020040F004006074002102
:103B8000ECE743685B1C436022F0040040F0020055
:103B90006074E3E76C270020B02100207CB50D465F
:103BA000072903D0082D01D007207CBD002602F094
:103BB000B9F9040002D0606810B11CE005207CBD9A
:103BC000217C0F4800F0DAFA02004FF0000000906C
:103BD00001908DF8025010D029466846E36800F045
:103BE00036F9684602F08CF9211D684600F010F99C
:103BF0000646092801D030467CBD03207CBD00006C
:103C00006C2700200149096808470000A8620200EB
:103C100030B587B01748FDF749FC10B1032007B055
:103C200030BDFDF78FFB08B18620F8E700F0CCF936
:103C3000002002904CF2070403900EE0694604A8AD
:103C4000FDF702FC00988088A0F5404085B204A8EA
:103C5000FDF7BCFB284600F073F902AA04A9204630
:103C6000FDF7D9FB0028E9D00349012008700020A6
:103C7000D5E70000BD110200A421002000F086B9A4
:103C800000F08AB970B5054686B014460E4600F5B8
:103C9000404080B20E4A6946FDF7BDFB20B903A93A
:103CA0006846FDF7D1FB10B1002006B070BDA570CD
:103CB0000398408820800498606003988088A0F56D
:103CC000404030806846FDF781FB0120EDE70000B1
:103CD000A821002002480021416081607047000057
:103CE000A4210020F0B587B01D46144607460E46B5
:103CF000FF280AD8084600F005F930B103AA31467A
:103D0000384600F0E7F840B902E0072007B0F0BD00
:103D100001A903A8FDF798FB08B10520F6E7A670F6
:103D200001984088208055B182002868904204D8CC
:103D300002996068FBF780FA03E00420E6E7029846
:103D4000606003A8FDF742FB0020DFE77FB588B085
:103D50001E460D460446FF2830D8A87800F0D2F859
:103D600060B3686806902888ADF81C0004F54040F0
:103D7000ADF80000A87803AA00F54040ADF80200B5
:103D800006A801900120ADF80800A978204600F0AF
:103D9000A1F805280A9813D010B10AA8FDF7B2FBC4
:103DA000694603A8FDF770FBB0B107281DD00828AD
:103DB00019D00E2817D003200CB070BD0720FBE7E8
:103DC00028B10AAA694603A8FDF769FBECE7694632
:103DD00003A8FDF760FBE7E71EB1314603A8FDF736
:103DE0002AFB0020E8E71120E6E78620E4E74FF60B
:103DF000FF7000F0A5B810B5FF2801D9072010BD4D
:103E000000F0A4F800F026F8002010BD00F0F0B893
:103E100070B504460D46807800F074F858B12188DA
:103E20002846FDF755FB002804D0072805D00928AF
:103E300000D0032070BD072070BD862070BD01B585
:103E40006846FDF75FFB002800D0032008BD9BB249
:103E500000F068B8F0B589B000264FF6FF770496F9
:103E60003846059603E0204600F082F8204600F030
:103E70008DF80446B84208D004F5404080B204AA48
:103E800006A9FDF7D0FA0A28EDD0114DA878002830
:103E90001AD1BC4218D0012704F54040AF7080B25F
:103EA000FDF708FA082811D000280DD0AE700921BE
:103EB0008DF80010CDE90260FF21ADF802408DF8C9
:103EC00004106846FFF79EFE09B0F0BD6F70FBE777
:103ED000A42100207CB5054616460C46084600F095
:103EE00011F80020009005F54045019004F540448C
:103EF000A8B2A1B26B463246FDF786FA002800D080
:103F000005207CBD07280BD0012809D0082807D040
:103F1000052805D0062803D0042801D000207047CA
:103F20000120704710B503EB83034FF6FF7404EADA
:103F300003138170DB1C99084260018010BD0000F2
:103F40000149FCF7C7BE00001C28002010B504463C
:103F5000A0F57F40FF3807D004492046FCF7BAFEA1
:103F6000A04201D1012010BD002010BD3C2800203E
:103F700010B50446044900F0C3FE03492046BDE8DD
:103F80001040203100F0BCBE1C2800200149FEF783
:103F90003DBE00003C28002070B50A49FEF736FE01
:103FA00004464FF6FF7507E000F02CF838B10549DC
:103FB0002046FEF72BFE0446AC42F5D170BD2046EC
:103FC00070BD00001C28002010B508484021FBF7F8
:103FD0004CF94FF480742146044800F0D7F921468B
:103FE0000248BDE81040203000F0D0B91C28002065
:103FF000FF2803D80146024800F0F7B900207047B7
:104000001C280020FF2803D80146024800F0EDB923
:10401000002070473C28002010B50C46FDF734FE08
:10402000FF2804D0024900EB400021F8204010BDD9
:104030007C2400201CB5044600F06CF908B1FBF7A5
:1040400001FE24B100F080FB08B1FBF7FBFD00206E
:10405000009001909DF8000020F07E0040F00100EB
:10406000303020F080008DF8000007208DF801002E
:1040700010208DF802009DF8030040F003008DF839
:1040800003009DF8040040F003008DF8040068462A
:1040900000F08CFB08B1FBF7D5FD044800F070FB85
:1040A000002801D0FBF7CEFD1CBD0000D741020067
:1040B0000449084490F93000082801DB01207047CA
:1040C00000207047742B00200449084490F9300008
:1040D000082801D20120704700207047742B00206F
:1040E0002DE9F0410F46060026D0306820B37068F5
:1040F00010B3FF2400251CE02946706800F04DF93C
:1041000048B1FF2C00D12C46281B401CB8420ED1D0
:104110002046BDE8F081FF2C06D108E0214630465C
:1041200000F040F8641CE4B2AC42F7D3FF246D1CED
:10413000EDB2B068A842DFD8FF20EAE72DE9F041F0
:104140000400DDE90705069E16D0A9B1A3B100FB66
:1041500005F7974210D8C21DB6EBD20F0CD358B159
:1041600055B1E5602160C4E9013081B2184600F024
:104170000DF90020BDE8F0810720FBE770B50400D1
:104180000D460DD0206858B1606848B1FF2D07D0AA
:1041900000F02BF920B1E168206805FB010070BD3B
:1041A000002070BD70B504000D4611D020680028B5
:1041B0000ED0606800280BD0FF2D09D000F015F953
:1041C000002805D029466068BDE8704000F019B9A4
:1041D00070BD01F035B908B501780F290FD2DFE8BD
:1041E00001F0080E080E0F16260E1D0E2622260EB2
:1041F0002800808800F0ECF9112800D078B908BDBB
:104200000021009140886946FFF7E3FF08BDFDF7F4
:1042100077F80E28FAD00828F8D0EFE70020BDE89C
:104220000840FBF70FBD0320FBF756FFE6E7806869
:10423000E4E7BDE8084000F09FB870B586B00446DA
:1042400014216846FBF711F86088ADF80400FDF70B
:1042500003FFADF80200257800200822072105237E
:104260000A2D29D2DFE805F005050C0E1017192BD1
:104270001D208DF809008DF800108DF808201BE036
:104280000D200BE00E2009E08DF809008DF80010DC
:104290008DF8083010E00F2000E010208DF80000AD
:1042A0000AE08DF8003007E006208DF80000A068D5
:1042B0000290A088ADF802006846FCF755FF06B0F2
:1042C00070BD000010B50446007886B0D8B1012852
:1042D00017D10F49608801224979FCF7D9F81421D8
:1042E0006846FAF7C2FF6088ADF802006088FDF703
:1042F00073FFADF8040000208DF800006846FCF75D
:1043000033FF06B010BDE08800F058F9F9E700006F
:10431000B821002070B5FFF77BFC48BBFFF74CFAD3
:1043200030BB01F099F818BB01F0A2F900BBFDF712
:1043300055FCE8B9FDF716FDD0B9FDF7A3FEB8B9F5
:104340000C4C4FF6FF700025E0801820A56020710E
:104350006071FCF767F82071182809D0FCF762F843
:104360006071182804D0657001202070002070BD95
:10437000032070BDB821002003480078002801D038
:10438000FDF750BC70470000B8210020002803D082
:10439000C91DC908FAF769BF7047002809D001F0A4
:1043A000070301229A40D2B200EBD1001146FEF77A
:1043B000AFBA70472DE9F0410D46060013D0002436
:1043C00001270EE004F0070007FA00F0C1B206EB87
:1043D000D400FEF79DFA10B12046BDE8F081641CC0
:1043E000A4B2AC42EED32846F7E740B100EBD100CF
:1043F00001F00702007801219140084000D001201F
:104400007047F8B50400C1F3C70501F007014FF08C
:10441000010000FA01F0C6B20FD0605D30420CD04E
:1044200000208DF800006846FBF79EFC605DB043FD
:1044300060559DF80000FBF7BBFCF8BD10B50446C5
:104440000748007800280AD02046FDF7ADFD204639
:1044500000F0EAFF2046BDE81040FDF7FBBA10BDB2
:10446000B8210020F0B58BB0044614216846FAF755
:10447000FCFE6088ADF80400FDF7EEFDADF802002B
:10448000237801200822072100264B4D4FF6FF77A5
:104490000A2B6CD2DFE803F00510263C444E6C8DED
:1044A00085878DF8001021798DF808108DF8096046
:1044B00003968DF80A0079E08DF8001021798DF8C7
:1044C00008108DF80960A16803918DF80A00A868AA
:1044D00000286BD0A168814268D1AE60BDF80400AD
:1044E000E88013E08DF8002020798DF808008DF821
:1044F0000960A0680390E0680490A868B0B3A16860
:10450000814253D1AE60E868401EE86003964DE0FA
:104510008DF8001021798DF808108DF80900F5E765
:104520008DF8002021798DF808108DF80900A06819
:1045300004903BE009208DF80000A878B0B138461F
:10454000FFF764F9B84231D13846FFF75DF9B84258
:104550002CD1AE70142105A8FAF787FE0B208DF838
:104560001400ADF81870ADF8167016E01EE020E0EB
:104570000A208DF80000A0680290A878B0B1AE7053
:10458000142105A8FAF771FE0C208DF81400ADF87F
:104590001870ADF81670A068079005A8FCF7E4FD48
:1045A00004E0052000E006208DF800006846FCF7D6
:1045B000DBFD0BB0F0BD0000B821002003490978F5
:1045C00009B1FDF7F5BD082070470000B8210020B3
:1045D000F0B52D4C074687B0207838B12B49D1E98A
:1045E0000201CDE90501607818B10EE0082007B09E
:1045F000F0BD254900230C311A46881F00F048F809
:1046000008B1052801D1012060706078A168401EC2
:10461000084301D0112534E0E088002687421CD1F0
:10462000E068D0B1002514216846FAF71EFE072085
:104630008DF800003846FDF70FFDADF802000620AA
:104640008DF808008DF80960ADF8047003968DF8B8
:104650000A606846FCF788FD13E0E0680A4A401CDF
:10466000E060083205A93846FFF799F9050008D03F
:10467000A660E068401EE060112D02D0862D00D0BB
:1046800003252846B3E70000B8210020C0620200DD
:104690002DE9FF4F2A4883B09946007892468B4611
:1046A000B8B14FF6FF763046FFF7B0F880460020ED
:1046B0000090244801AA062100680190CDF808D096
:1046C0004046FFF73FF900256C1E3746072804D007
:1046D00017E0082007B0BDE8F08F0520FAE70020BA
:1046E0000090A84201D305464746A04201D20446A5
:1046F00046464046FFF78AF8804601AA0621FFF7A2
:1047000021F9D8B10528EAD0A8F57F41FF3901D0B9
:104710000320DFE70399002001B10F80BBF1000FF8
:1047200001D0CBF80050BAF1000F01D0AAF8006018
:10473000B9F1000FCED0C9F80040CBE70098D0E720
:10474000B8210020C062020070B50C48017829B180
:10475000012181704FF6FF75284607E0082070BDE3
:10476000FFF72CFF08B1032070BD2046FFF74EF87D
:104770000446A842F4D1002070BD0000B8210020FA
:10478000084A117821B1D178032903D30420704756
:1047900008207047044B43F82100491CD1700020C9
:1047A00070470000B82100205C28002003490978E8
:1047B00009B100F095BE082070470000B821002024
:1047C0002DE9F04385B00446012714216846FAF725
:1047D0004CFD6088ADF80200504E94F800C00025F2
:1047E00007200322317973794FF00209BCF10D0FD4
:1047F00076D2DFE80CF0848F071A2D3E484D5764BF
:104800006A6C800001208DF80000207908B1012237
:1048100000E00022012806D000256088FBF738FE62
:1048200060882A4610E00125F7E78DF8009020798E
:1048300008B1012000E002208DF808006088012204
:10484000FBF726FE227960887179FBF721FE57E09D
:104850008DF8002060881946FBF706FE08B101209C
:1048600000E002208DF80800A0798DF80C00A088E7
:104870003EE06088FBF7F8FD00284BD18DF80090F2
:104880008DF808503CE08DF800208DF80850EBE7DB
:104890008DF80000A1888DF80800ADF804108DF89F
:1048A000095034E008218DF80010A1888DF8080027
:1048B000ADF804108DF80950A068049027E0062098
:1048C0008DF80000606802901AE0052014E08DF871
:1048D000002060881946FBF7C7FD10B1012001E0F8
:1048E0000DE002208DF808008DF80C5041F2011007
:1048F000ADF80A0004E004208DF8000000E0002775
:104900006088FDF769FCADF80400002F02D068460E
:10491000FCF72AFC05B0BDE8F0830000B8210020B8
:104920000848416E491E416604D107490A7822F0C1
:1049300002020A70016E491C0166042901D100219E
:1049400001667047342D00204822002070B50C49C4
:104950000446486E042811D00A6E0244042A00D38B
:10496000121F401C486602EB420001EBC0000546E6
:104970001821FAF77AFC0120256070BD002070BD77
:10498000342D0020F0B52D4C002785B0216F41F665
:104990001D56C1EBC10104EB81052978072919D205
:1049A000DFE801F0180408080C0C10002946FDF798
:1049B00041FC09E0294601F095FB05E02946FCF79A
:1049C000ABFA01E0FCF758FF002831D0B04202D129
:1049D000019710E00F2001902878022801D00328C9
:1049E00009D11648AA7D7830016C11440164AA7D72
:1049F000416C891A416469462846FCF741FB6846C8
:104A0000FCF774FB206F1C21C0EBC00004EB80009E
:104A1000FAF72BFC606F68B194F87010491C01F034
:104A20000301401EC4E91C1004D00020FFF7AAFFB8
:104A300005B0F0BD0420FCF791FDF9E7442C0020FF
:104A4000194830B4016E01EB410100EBC104406E26
:104A5000002827D0207A012802D0022816D10FE0A2
:104A6000A18AE08A4FF48062091A914200DA8AB280
:104A7000E168236901EB800103EB800029DF01E09D
:104A8000A08928DF112806D000280BD0204630BC92
:104A9000092100F06DBB0549087820F0020040F0C4
:104AA0000400087030BC7047342D002048220020DC
:104AB000064810B50078400707D40420FCF768FDCD
:104AC000BDE810400020FFF75DBF10BD3022002080
